:0400000000EF01F01C
:100200000F0EC16E3C0E946EF00E996E9068976A58
:100210008E6A92888250006E004200400F0B006E82
:100220008750016E01420142014201400F0B016EF5
:100230000050015CEFE78E802AEC01F08E902AECF2
:1002400001F0E8D7D00E026E0000000000000206A8
:10025000FBE11200C80E036E22EC01F022EC01F06B
:1002600022EC01F022EC01F022EC01F00306F4E1B3
:0202700012007A
:020000040030CA
:06000100021F1EF38381C3
:06000800FFC0FFE0FF4015
:00000001FF
