:0400000000EF01F01C
:100200000F0EC16E9298976AF00E996E380E946E2A
:100210009A8A9390030E906E8E6A8988899090686E
:10022000828481808250040BFDE08150010B00E04C
:1002300081A018EF01F08E50010F59E08E6E52EC44
:1002400001F052EC01F052EC01F052EC01F052ECF2
:1002500001F052EC01F052EC01F052EC01F052ECE2
:1002600001F052EC01F052EC01F052EC01F052ECD2
:1002700001F052EC01F052EC01F052EC01F052ECC2
:1002800001F052EC01F052EC01F052EC01F052ECB2
:1002900001F052EC01F052EC01F052EC01F052ECA2
:1002A00001F0C3D7F90E006F00000000000000004D
:1002B000000000000000000000000000000000003E
:1002C000000000000000000000000007EDE1000059
:1002D000000000000000000000000000000000001E
:1002E0000000000000000000000000001200FFD726
:020000040030CA
:06000100021F1EF38381C3
:06000800FFC0FFE0FF4015
:00000001FF
