:0400000000EF01F01C
:100200000F0EC16E9298976AF00E996E3C0E946E26
:100210009A8A030E906E89988E6A899090688850A9
:10022000200B01E005E1850E8E6E909290828E6823
:100230008250006E0042004200500F0B006E87504B
:10024000016E0150F00B016E005001108E6E898816
:100250008E6A899801420142014201400F0B016FF1
:100260000150005F02E005E308E10E0E8E6E9090F3
:10027000D4D78F0E8E6E9090D0D75F0E8E6E9090EA
:04028000CCD7CBD735
:020000040030CA
:06000100021F1EF38381C3
:06000800FFC0FFE0FF4015
:00000001FF
