:0400000000EF01F01C
:10020000FF0E046F010E056F0451036F9A9C918CD1
:100210000551026F010E025D026F01E0FBD7916A8A
:10022000080E016F010E015D016F3C0E006F015160
:1002300005E0010E005D006FF5E0FBD7010E035DE8
:10024000036F01E0E3D70451036F9A9C918C055131
:10025000026F010E025D026F01E0FBD7916A0A0E88
:10026000016F010E015D016F3C0E006F015105E051
:10027000010E005D006FF5E0FBD7010E035D036F1B
:06028000BFE0E3D7BDD78B
:020000040030CA
:06000100021F1EF38381C3
:06000800FFC0FFE0FF4015
:00000001FF
