:0400000000EF01F01C
:100200000F0EC16E9298976AF00E996E3C0E946E26
:100210009A8A030E906E89988E6A899090688850A9
:10022000200B01E006E1850E8E6E90920000908218
:100230008E688250006E0042004200500F0B006E2C
:100240008750016E0150F00B016E005001108E6E50
:1002500089880000000000008E6A899801420142EE
:10026000014201400F0B016F0150005F02E005E306
:1002700008D00E0E8E6E9090D0D78F0E8E6E90900E
:0C028000CCD75F0E8E6E9090C8D7C7D709
:020000040030CA
:06000100021F1EF38381C3
:06000800FFC0FFE0FF4015
:00000001FF
