:0400000000EF01F01C
:100200000F0EC16E9298976AF00E996E3C0E946E26
:100210009A8A9380030E906E8E6A8988899090687E
:100220008250040BFDE08150010B00E081A016EF2D
:1002300001F08E50010F55E08E6E24EC01F024EC9D
:1002400001F024EC01F0EFD7F90E006F0000000080
:10025000000000000000000000000000000000009E
:10026000000000000000000000000000000000008E
:10027000000000000000000000000000000000007E
:10028000000000000000000000000000000000006E
:100290000000000000000007D9E10000000000009D
:1002A000000000000000000000000000000000004E
:1002B000000000000000000000000000000000003E
:1002C000000000000000000000000000000000002E
:1002D000000000000000000000000000000000001E
:0402E0001200FFD732
:020000040030CA
:06000100021F1EF38381C3
:06000800FFC0FFE0FF4015
:00000001FF
