:0400000000EF01F01C
:100200000F0EC16E9298976AF00E996E3C0E946E26
:100210009A8A9380030E906E8E6A8988899090687E
:100220008250040BFDE08150010B00E081A016EF2D
:1002300001F08E50010F2DE08E6EFF0E006F22EC4C
:1002400001F0F1D7000000000000000000000000F5
:10025000000000000000000000000000000000009E
:10026000000000000000000000000000000000008E
:10027000000000000000000000000000000000007E
:100280000000000000000000000000000007DAE1AC
:040290001200FFD782
:020000040030CA
:06000100021F1EF38381C3
:06000800FFC0FFE0FF4015
:00000001FF
