:0400000000EF01F01C
:100200000F0EC16E3C0E946EF00E996E9068976A58
:100210008E6A929889888250006E004200400F0BCF
:10022000006E8750016E01420142014201400F0BF6
:10023000016E0050015CEFE0EEE68E802CEC01F0E8
:100240008E902CEC01F0E7D7D00E026E000000007B
:1002500000000206FBE11200C80E036E24EC01F060
:1002600024EC01F024EC01F024EC01F024EC01F08A
:060270000306F4E1120098
:020000040030CA
:06000100021F1EF38381C3
:06000800FFC0FFE0FF4015
:00000001FF
